S01E0000546F67676C655F4C65645F5573696E675F617672696F2E737265634B
S11300000C942A000C9434000C9434000C943400A6
S11300100C9434000C9434000C9434000C9434008C
S11300200C9434000C9434000C9434000C9434007C
S11300300C9434000C9434000C9434000C9434006C
S11300400C9434000C9434000C9434000C9434005C
S11300500C94340011241FBECFE5D8E0DEBFCDBF21
S11300600E9436000C9449000C94000081E88ABB7D
S11300709BB381E089278BBB8BB380588BBB2FEF5D
S113008089E698E1215080409040E1F700C00000EB
S1090090EFCFF894FFCF4E
S9030000FC
