S01E0000546F67676C655F4C65645F5573696E675F617672696F2E737265634B
S11300000C942A000C9434000C9434000C943400A6
S11300100C9434000C9434000C9434000C9434008C
S11300200C9434000C9434000C9434000C9434007C
S11300300C9434000C9434000C9434000C9434006C
S11300400C9434000C9434000C9434000C9434005C
S11300500C94340011241FBECFE5D8E0DEBFCDBF21
S11300600E9436000C9446000C94000081E08ABB88
S11300709BB381E089278BBB2FEF89E698E1215060
S113008080409040E1F700C00000F2CFF894FFCF29
S9030000FC
