S01900004C4142365F50726F6A315F48415A4152442E73726563C2
S11300000C942A000C9447000C9447000C9447006D
S11300100C9447000C9447000C9447000C94470040
S11300200C9447000C9447000C9447000C94470030
S11300300C9447000C9447000C9447000C94470020
S11300400C9447000C9447000C9447000C94470010
S11300500C94470011241FBECFE5D8E0DEBFCDBF0E
S113006010E0A0E6B0E0E2E3FBE002C005900D92F0
S1130070A63AB107D9F720E0A6EAB0E001C01D9284
S1130080A83AB207E1F70E944F030C9497050C9429
S1130090000041E064E082E00E94BD018FEC97E043
S11300A00197F1F700C0000040E064E082E00E94A4
S11300B0BD018FEC97E00197F1F700C000000895AF
S11300C0CF93C82F41E062E082E00E94BD0140E08E
S11300D063E082E00E94BD016C2F62956F7083E043
S11300E00E94EA020E9449006C2F83E00E94EA0207
S11300F00E9449008FEC97E00197F1F700C00000DF
S1130100CF910895CF93C82F40E062E082E00E942F
S1130110BD0140E063E082E00E94BD016C2F629566
S11301206F7083E00E94EA020E9449006C2F83E012
S11301300E94EA020E9449008FEC97E00197F1F7D0
S113014000C00000CF9108950F931F93CF938C01AB
S1130150C0E003C00E946000CF5FF801EC0FF11D06
S113016080818111F7CFCF911F910F9108959FEF57
S1130170980F923070F4613170F4662371F081301D
S113018019F42FE7260F0AC0823041F42FEB260F13
S113019005C020E803C020E801C020E8822F0E94A7
S11301A082008FEC97E00197F1F700C000000895FA
S11301B081E00E9482008FE19EE40197F1F700C084
S11301C0000008952FE788E391E02150804090409B
S11301D0E1F700C0000041E064E083E00E943501E3
S11301E041E065E083E00E94350141E066E083E0A0
S11301F00E94350141E067E083E00E94350141E05F
S113020062E082E00E94350141E063E082E00E9406
S1130210350141E064E082E00E94350182E00E9401
S113022082008FE59AEE0197F1F700C0000088E2A2
S11302300E9482008FEC97E00197F1F700C0000064
S11302408CE00E9482008FEC97E00197F1F700C0E8
S113025000000E94D80086E00E9482008FEC97E0A4
S11302600197F1F700C000000895843008F07BC0C6
S1130270683008F07AC04130C1F5813091F028F03F
S11302808230D9F0833029F172C02AB381E090E042
S113029002C0880F991F6A95E2F7822B8ABB81E01E
S11302A0089527B381E090E002C0880F991F6A95F2
S11302B0E2F7822B87BB81E0089524B381E090E0CC
S11302C002C0880F991F6A95E2F7822B84BB81E0F4
S11302D0089521B381E090E002C0880F991F6A95C8
S11302E0E2F7822B81BB81E00895411142C0813045
S11302F099F028F08230E9F0833041F13CC02AB310
S113030081E090E002C0880F991F6A95E2F780951A
S113031082238ABB81E0089527B381E090E002C084
S1130320880F991F6A95E2F78095822387BB81E045
S1130330089524B381E090E002C0880F991F6A9564
S1130340E2F78095822384BB81E0089521B381E0A4
S113035090E002C0880F991F6A95E2F78095822386
S113036081BB81E0089580E0089580E0089581E0F4
S1130370089580E0089581E00895843008F07BC0FA
S1130380683008F07AC04130C1F5813091F028F02E
S11303908230D9F0833029F172C02BB381E090E030
S11303A002C0880F991F6A95E2F7822B8BBB81E00C
S11303B0089528B381E090E002C0880F991F6A95E0
S11303C0E2F7822B88BB81E0089525B381E090E0B9
S11303D002C0880F991F6A95E2F7822B85BB81E0E2
S11303E0089522B381E090E002C0880F991F6A95B6
S11303F0E2F7822B82BB81E00895411142C0813033
S113040099F028F08230E9F0833041F13CC02BB3FD
S113041081E090E002C0880F991F6A95E2F7809509
S113042082238BBB81E0089528B381E090E002C071
S1130430880F991F6A95E2F78095822388BB81E033
S1130440089525B381E090E002C0880F991F6A9552
S1130450E2F78095822385BB81E0089522B381E091
S113046090E002C0880F991F6A95E2F78095822375
S113047082BB81E0089580E0089580E0089581E0E2
S1130480089580E0089581E00895843008F068C0FC
S1130490683008F067C08130F1F030F0823091F1BB
S11304A0833009F446C060C079B381E090E09C01D8
S11304B0062E02C0220F331F0A94E2F7872F90E022
S11304C08223932302C0959587956A95E2F7FA01F2
S11304D0808381E0089576B381E090E09C01062E4C
S11304E002C0220F331F0A94E2F7872F90E0822381
S11304F0932302C0959587956A95E2F7FA01808364
S113050081E0089573B381E090E09C01062E02C05F
S1130510220F331F0A94E2F7872F90E0822393235C
S113052002C0959587956A95E2F7FA01808381E088
S1130530089570B381E090E09C01062E02C0220F62
S1130540331F0A94E2F7872F90E08223932302C09B
S1130550959587956A95E2F7FA01808381E008957D
S113056080E0089580E0089581E008958430A0F447
S1130570813049F028F0823049F0833051F00EC0C8
S11305806ABB81E0089567BB81E0089564BB81E0A4
S1130590089561BB81E0089580E0089580E00895A6
S11305A08430A0F4813049F028F0823049F083305F
S11305B051F00EC06BBB81E0089568BB81E00895E3
S11305C065BB81E0089562BB81E0089580E00895F1
S11305D080E00895843050F56295607F813071F039
S11305E028F0823099F08330C9F022C08BB38F7029
S11305F08BBB8BB3682B6BBB81E0089588B38F7082
S113060088BB88B3682B68BB81E0089585B38F707D
S113061085BB85B3682B65BB81E0089582B38F7079
S113062082BB82B3682B62BB81E0089580E00895A9
S113063081E0089560916D0070916E0080916F006B
S1130640909170000E94F9046091690070916A00B1
S113065080916B0090916C000E94F9046091660097
S113066070916700809168000E9451056091630059
S113067070916400809165000E9451056091600052
S113068070916100809162000E9451050E94E20015
S113069061E081E00E94B7000E941E0408950E9458
S11306A01A030E942404FDCF813019F138F08230FE
S11306B009F445C0833009F468C0089560916D0061
S11306C070916E0080916F00909170000E943305CC
S11306D06091690070916A0080916B0090916C0048
S11306E00E9433050E94D80081E790E00E94A40094
S11306F0089560916D0070916E0080916F009091EB
S113070070000E9415056091690070916A008091E3
S11307106B0090916C000E94330560916D007091A4
S11307206E0080916F009091700040E00E94FE0482
S11307300E94D8008BE790E00E94A4000895609185
S11307406D0070916E0080916F00909170000E9416
S113075033056091690070916A0080916B009091FB
S11307606C000E9415056091690070916A00809187
S11307706B0090916C0040E00E94FE040E94D8003F
S113078086E890E00E94A400089560916D00709145
S11307906E0080916F00909170000E941505609129
S11307A0690070916A0080916B0090916C000E94C6
S11307B0150560916D0070916E0080916F009091AD
S11307C0700040E00E94FE046091690070916A002C
S11307D080916B0090916C0040E00E94FE040E94A6
S11307E0D80080E990E00E94A40008958091A700B9
S11307F08093A6001092A70080E00E9454030895FD
S11308008091A7008093A60081E08093A7000E94B6
S1130810540308958091A7008093A60082E08093FA
S1130820A7000E94540308958091A7008093A60016
S113083083E08093A7000E94540308951092A700B8
S113084080E00E94540308956091660070916700EF
S1130850809168000E9467058823C1F18FE39CE9B9
S11308600197F1F700C00000609166007091670085
S1130870809168000E9467058823F1F08091A700A9
S1130880813049F028F0823049F0833051F014C0AF
S11308900E94000411C00E9400040EC00E94F603CE
S11308A00BC00E94140408C0609166007091670038
S11308B0809168000E9467056091660070916700EE
S11308C0809168000E9467058111EECF60916300FA
S11308D070916400809165000E9467058823C1F1CE
S11308E08FE39CE90197F1F700C000006091630079
S11308F070916400809165000E946705882341F12E
S11309008091A700813049F028F0823049F083308B
S113091051F014C00E940A0411C00E94F6030EC0D4
S11309200E940A040BC00E94140408C06091630072
S113093070916400809165000E9467056091630076
S113094070916400809165000E9467058111EECF6B
S11309506091600070916100809162000E9467055F
S1130960882309F445C08FE39CE90197F1F700C09F
S113097000006091600070916100809162000E94AB
S113098067058823A9F18091A700882321F082308C
S113099011F0813019F40E94140420C08330F1F462
S11309A08091A600813049F028F0823049F08330EC
S11309B051F014C00E94F60311C00E9400040EC03E
S11309C00E940A040BC00E94F60308C060916000F4
S11309D070916100809162000E94670560916000DF
S11309E070916100809162000E9467058111EECFD1
S11309F00895872F6FEF0E94B6020895611109C010
S1130A00E42FF0E0E456FF4F6081872F0E94D0026C
S1130A100895613049F4E42FF0E0E456FF4F60811B
S1130A206095872F0E94D0020895CF93DF93C82F3B
S1130A30D92F61110AC041E0692F0E94350140E0BD
S1130A406D2F8C2F0E94BD010BC0613049F441E031
S1130A50692F0E94350141E06D2F8C2F0E94BD014A
S1130A60DF91CF910895CF93DF93C82FD92F6111D0
S1130A700AC041E0692F0E94350141E06D2F8C2F9F
S1130A800E94BD010BC0613049F441E0692F0E940E
S1130A90350140E06D2F8C2F0E94BD01DF91CF9175
S1130AA008951F93CF93DF93C62FD72F182F40E0BD
S1130AB0672F8C2F0E943501111105C041E06D2F65
S1130AC08C2F0E94BD01DF91CF911F910895CF9388
S1130AD0DF931F92CDB7DEB7962F1982823060F470
S1130AE0AE014F5F5F4F672F892F0E9445028981B6
S1130AF0811112C081E017C0823081F4AE014F5FD2
S1130B005F4F672F892F0E9445028981882341F016
S1130B10813041F080E007C080E005C080E003C080
S1130B2080E001C081E00F90DF91CF910895F894A7
S1050B30FFCFF1
S1130B320206000207000205000001020100000291
S1130B420049444C45204D4F4445005249474854BE
S1130B52204D4F4445004C454654204D4F444500DA
S1130B6248415A415244204D4F4445003F065B4F91
S1090B72666D7D077F6F34
S9030000FC
